:020000040800F2
:1000000080940024A503000829E900085DD70008B2
:1000100009E80008AF3300088D3A0108000000002D
:10002000000000000000000000000000E5020008E1
:100030007D4C00080000000041030008EFF70008B5
:10004000C3030008C3030008C3030008C303000878
:10005000C3030008C3030008C3030008C303000868
:10006000C3030008C3030008C3030008013F0008DE
:10007000C3030008113F0008C3030008213F000824
:10008000C3030008C3030008C3030008A94C000809
:10009000B94C0008C3030008C3030008C3030008E9
:1000A000C3030008C3030008C3030008C303000818
:1000B000C3030008C3030008CDF90008C303000808
:1000C000C3030008C3030008C3030008C3030008F8
:1000D000C3030008C30300089D100108C303000800
:1000E000C3030008C3030008000000001DFA000855
:1000F0002DFA0008C3030008C3030008C303000867
:10010000C3030008C3030008F5F90008C30300088F
:10011000C3030008E9010108C3030008C303000882
:10012000C3030008C3030008C3030008C303000897
:10013000C3030008C3030008C3030008C303000887
:1001400000000000000000000000000000000000AF
:10015000C3030008C3030008C3030008C303000867
:10016000C3030008C3030008C3030008C303000857
:10017000C30300082DE90008C303000800000000C5
:10018000C3030008C303000841020108510201082B
:10019000C3030008C3030008C3030008C303000827
:1001A000C3030008C3030008C303000800000000E5
:1001B000C3030008C3030008C3030008C303000807
:1001C000C3030008C3030008000000000000000093
:1001D0000000000000000000C30300080000000051
:1001E000000000000000000000000000000000000F
:1001F0000000000000000000C3030008C303000863
:10020000C3030008C303000800000000C303000884
:10021000C3030008C3030008C3030008C3030008A6
:10022000C303000800000000C30300080000000032
:10023000C3030008C303000800000000C303000854
:10024000C3030008C3030008C3030008C303000876
:10025000C3030008C3030008C3030008C303000866
:10026000C3030008C3030008C3030008C303000856
:10027000C3030008C3030008C30300080000000014
:10028000C3030008C3030008C3030008C303000836
:1002900000000000C3030008C303000800000000C2
:1002A00000000000C3030008C30300086102010846
:1002B000F10F0108C3030008C3030008C94C00087C
:1002C000C3030008C3030008C3030008DFF810D00D
:1002D00000F07AF900480047F9820108AFF3008086
:1002E000809400242C4B19680868B0E8F04F80F324
:1002F0000988BFF36F8F4FF0000080F311887047BB
:100300000000000008480068006880F308884FF08B
:10031000000080F3148862B661B6BFF34F8FBFF35D
:100320006F8F00DF00BF00BF08ED00E0DFF80C00BA
:10033000016841F470010160704700BF88ED00E082
:10034000EFF30980BFF36F8F134B1A681EF0100F85
:1003500008BF20ED108A20E9F04F106009B44FF07B
:10036000500080F31188BFF34F8FBFF36F8F1AF0E7
:100370000BFA4FF0000080F3118809BC1968086877
:10038000B0E8F04F1EF0100F08BFB0EC108A80F3F9
:100390000988BFF36F8F704754000024EFF3058086
:1003A00070470000074880470748804707480047D4
:1003B000FEE7FEE7FEE7FEE7FEE7FEE7FEE7FEE715
:1003C000FEE7FEE7854C0008C1F80008CD020008F2
:1003D0002DE9F05F0546002092469B46884606467A
:1003E000814640241BE0284641464746224600F00D
:1003F00053F853465A46C01A914110D31146184635
:10040000224600F03AF82D1A67EB01084F462246C3
:100410000120002100F031F817EB00094E41201EA9
:10042000A4F10104DFDC484631462A464346BDE8D4
:10043000F09F40EA01039B0703D009E008C9121F9F
:1004400008C0042AFAD203E011F8013B00F8013B8E
:10045000521EF9D27047D2B201E000F8012B491EBA
:10046000FBD270470022F6E710B513460A46044651
:100470001946FFF7F0FF204610BD202A04DB203A82
:1004800000FA02F1002070479140C2F1200320FAE7
:1004900003F3194390407047202A04DB203A21FAE5
:1004A00002F00021704721FA02F3D040C2F120028D
:1004B00091400843194670472DE9F041054621F067
:1004C00000400C46284309D0C4F30A5040F233419F
:1004D000884205DD28462146BDE8F0812846FBE735
:1004E00040F2FE31884210DC0CDB4FEA043040EA77
:1004F000155050EA053105D0104804F00041014381
:100500000020E9E700200146E6E7A0F2334046423A
:10051000C6F1400228462146FFF7AFFF074688464E
:10052000284621463246FFF7B7FF43463A4600F0D9
:100530005DF83246BDE8F041FFF79FBF0000F03F95
:100540002DE9FE4FC3F30A5701F000450024C1F323
:100550000A56C3F31303C1F3130143F4801312EBE0
:10056000020AA64641F48011009543EB030CA7F163
:10057000010B16E0B0EB0A0061EB0C01071E71F1F4
:10058000000707DA4FF00008D0EB080085F00045BF
:1005900068EB0101171A73EB0107EBD3761E001805
:1005A00049415E45F6DA50EA010209D0CDE900E59D
:1005B00000221346029600F028F803B0BDE8F08F41
:1005C00020460099F9E70000064C074D06E0E06878
:1005D00040F0010394E8070098471034AC42F6D38A
:1005E000FFF778FEE4BB010804BC010810B5141E37
:1005F00073F1000408DA401C41F1000192185B41DC
:100600001A4301D120F0010010BD2DE9F04D9246B2
:100610009B4611B1B1FA81F202E0B0FA80F22032C9
:100620009046FFF72AFF04460F4640EA0A0041EAD7
:100630000B0153465A46084313D0114653EA0100B2
:1006400019D0C8F140025046FFF726FF05460E4676
:10065000504659464246FFF710FF084305D0012097
:1006600004E020463946BDE8F08D0020054346EA07
:10067000E0762C4337430A986305E40AA0EB0800B0
:100680000022FD0A44EA47540A3002D50020014600
:10069000E9E7010510196941DDE9084500196941DB
:1006A000BDE8F04DA2E770B58C1810F8015B15F0AD
:1006B000070301D110F8013B2A1106D110F8012BD4
:1006C00003E010F8016B01F8016B5B1EF9D12B07F9
:1006D00005D40023521E0DD401F8013BFAE710F8AF
:1006E000013BCB1A921C03E013F8015B01F8015B9C
:1006F000521EF9D5A142D8D3002070BD10B52DED02
:100700000A8B84B004469FEDAD0AF0EE409A9FED4F
:10071000AB0AB0EE40AA9FEDA90AF0EE40BA9FEDF9
:10072000A70AB0EE40BA9FEDA50AF0EE40AA9FEDF1
:10073000A30AB0EE409A94ED020AB0EE408A94ED1E
:10074000010AF0EE408A2068082866D2DFE800F04F
:100750000466C1656505060700BF00BF00BFDFED89
:10076000980A78EE600A60EEA00A48EEA80AB0EE99
:10077000600A13F0DEFEDFED930A60EE200A9FEDC3
:10078000920A08EEA80A9FED8E1A38EE411ADFEDA4
:100790008C1A78EE611A01EE210A9FED8C1A30EE68
:1007A000410A80EE201AB0EE41CAB0EE4C0A13F0B6
:1007B00007FADFED870A30EEC0CA9FED810A38EEF6
:1007C000400AF0EE400AB0EE680A13F08BFA3CEEF5
:1007D000400AF0EE409A9FED7F0A08EEE80ADFED4E
:1007E000780A78EE600A9FED761A38EE411A00EE2C
:1007F000C10ADFED790A80EE201AB0EE41CAB0EEF0
:100800004C0A13F0DDF9B0EE40AA9FED710A39EE03
:10081000800A30EE4A0AF0EE40BABDE0DFED680A29
:1008200078EEA00A60EEA00A48EE080AB0EE600A70
:1008300013F07FFEDFED630A60EE200A9FED620A8F
:1008400008EE080A9FED5E1A38EE811ADFED5C1A99
:1008500078EEA11A01EE210A9FED5C1A30EE410AF2
:1008600080EE201AB0EE41CAB0EE4C0A13F0A8F99F
:10087000DFED570A30EEC0CADFED510A78EEA00A6C
:10088000B0EE600AF0EE480A13F02CFA3CEE400A93
:10089000F0EE409A9FED4F0A08EE480ADFED480A55
:1008A00078EEA00A9FED461A38EE811A00EEC10AD2
:1008B000DFED490A80EE201AB0EE41CAB0EE4C0AD4
:1008C00013F07EF9B0EE40AA3AEE690AF0EE40BAB3
:1008D00062E09FED3A0A13F05FFB9FED401AF0EEE5
:1008E000480A41EE400AB0EE60BA9FED340A13F0B8
:1008F00023FD9FED3A1AF0EE680A41EE000AF0EE91
:1009000060AA2BEE0B1A0AEEAA1AB7EEC11AB0EEC5
:10091000410B13F0DBFDB7EEC00BB0EE409A9FED3C
:100920002A0A09EE090ADFED290A30EE600ADFED36
:10093000250A69EE200A80EE201AB0EE41CAB0EE18
:100940004C0A13F03DF9DFED220A30EEC0CAF0EE9A
:100950004B0AB0EE6A0A13F0C5F93CEE400AF0EE1D
:10096000409A9FED1C0A09EE490ADFED1B0A80EE52
:10097000201AB0EE41CAB0EE4C0A13F021F9B0EEE5
:1009800040AA3AEE690ADFED0D0A30EE200AB1EE18
:10099000400AF0EE40BA00BF00BFCDED019A8DEDE8
:1009A00002AACDED03BA9DED010ADDED020A9DED2F
:1009B000031A04B0BDEC0A8B10BD0000000000005B
:1009C0009A99193E1F858B3FAA13983E143F463EC5
:1009D000DA0FC93F3433FB3E228EF53EF6285C3EEB
:1009E00017B595B0142110A8FFF73CFD14210BA8F2
:1009F000FFF738FD142106A8FFF734FDFE48007804
:100A000018B9FE48007A03285CD10C20FC49086024
:100A100015A807C80FF0D4FAFA4880ED000AC0ED17
:100A2000010A80ED021A90ED000AFEEE000A20EEA7
:100A3000200A8DED050A1598D0F8000104909DED6F
:100A4000052AF0EE081AB3EE0E1ADFEDEF0A9FED5D
:100A5000EF0A049915988847EA4890ED010AFEEEDE
:100A6000000A20EE200A8DED050A1698D0F8000144
:100A700004909DED052AF0EE081AB3EE0E1ADFED94
:100A8000E20A9FEDE30A049916988847DD4890ED45
:100A9000020AF6EE000A20EE200A8DED050A1798EC
:100AA000D0F8000104909DED052AF6EE001A9FEDA6
:100AB000D91ADFEDD50A9FEDD80A0499179888470F
:100AC00001F07CBECD48407A01287CD1CB48C07A69
:100AD000012878D1C948C078002874D1C748807AE5
:100AE000002870D1C6490860C448007DDFEDCB0AFC
:100AF0009FEDCB0AC8220021059015F071FAC0487D
:100B000080ED020A9FEDC70A80ED010AFFF7F6FDAE
:100B1000C54880ED000AC0ED010A80ED021A15A853
:100B200007C80FF04DFAB74880ED000AC0ED010A82
:100B300080ED021A90ED000AFFEE000A20EE200A76
:100B40008DED050AB84890ED000ADFEDB80A30EEE9
:100B5000200A8DED040A1598D0F8000103909DED50
:100B6000052AF0EE001AB3EE0E1ADFEDA70A9DED8E
:100B7000040A039915988847A24890ED010AB7EE38
:100B8000C00A9FEDAB1B20EE010BB7EEC00B8DED45
:100B9000050AA54890ED010AB1EE400A8DED040A60
:100BA0001698D0F8000103909DED052AF1EE021A87
:100BB0009FEDA11ADFED940A9DED040A03991698A2
:100BC0008847159800E03DE090ED320ADFED9B0A82
:100BD00030EE200AB7EEC00A9FED991B30EE411BA4
:100BE000169890ED320AB7EEC00A31EE000B9FED79
:100BF000961B30EE410BB3EE091B20EE010BB7EE56
:100C0000C00B8DED040A7F4890ED020AB7EEC00AD2
:100C10009FED8F1B20EE010BB7EEC00B8DED050A8B
:100C20001798D0F8000103909DED052ADFED8A1A90
:100C30009FED8A1ADFED740A9DED040A0399179857
:100C400088473DE76D48407A01287CD16B48C07ADF
:100C5000022878D16948007A012874D1684908606F
:100C6000B6EE000A084680ED020A6448007DF5EE03
:100C7000000A9FED7B0AC8220021059015F0B0F90B
:100C80005F4880ED010AFFF739FD674880ED000AF3
:100C9000C0ED010A80ED021A15A807C80FF090F9FF
:100CA000584880ED000AC0ED010A80ED021A90ED6F
:100CB000010AB7EEC00A9FED6B1B20EE010BB7EEE9
:100CC000C00B8DED050A584890ED010AB1EE400ABF
:100CD0008DED040A1698D0F8000103909DED052AC9
:100CE000F0EE041AB3EE0E1ADFED470A9DED040A8A
:100CF0000399169888474C4890ED020AB7EEC00A4F
:100D00009FED5A1B30EE010BBBEE091B20EE010BD1
:100D1000B7EEC00B8DED050A1798D0F800019FEDD6
:100D20003A2ADFED541A9FED4C1ADFED370A049092
:100D30009DED050A049917988847324890ED000AFE
:100D4000DFED4D0A00E01EE020EE200A8DED050AE1
:100D5000354890ED000ADFED490A30EE200A8DEDAE
:100D6000040A1598D0F8000103909DED052AF1EED4
:100D7000001A9FED431ADFED240A9DED040A039942
:100D8000159888479CE61D48407A012833D11B48B6
:100D9000C07A0128FAD11948C0780328F6D115A8DD
:100DA00007C80FF00DF9174880ED000AC0ED010AE1
:100DB00080ED021A169890ED320ADFED320AB4EE99
:100DC000E00AF1EE10FA7CDD0FA800900D4890EDDE
:100DD000010AF8EE000A20EE200A8DED050A90EDDA
:100DE000010AFEEE000A20EE200A8DED040A169894
:100DF00090ED320A48E02EE23003002498020024ED
:100E00005C6D0024746D002400000000FED4383FA7
:100E10001F85ABBE9A99993EE3A5DF413333333F3B
:100E20000AD7A33E1F856B3E686D0024F628DC3E82
:100E3000333333333333E3BF00004842DA0FC93F63
:100E400085EB51B81E85DB3F7B14AE479F20B83F32
:100E50009A9999999999E93F9A99193ECDCC4C3E26
:100E6000CDCC4CBD9A9999999999E9BF52B81E85F4
:100E7000BF15B03FCDCCCC3D9A9999BF6666E63E92
:100E800000002042CDCCCCBF8DED030A1FED224ADD
:100E9000DDED053A9DED043AF1EE002AB1EE042AAB
:100EA0000EABF3EE0E1A0DAA9FEDFE1A0CA9DDEDA6
:100EB000030A0BA81FED0D0A15F0CEFB9DED0F0ADE
:100EC00000E022E08DED050A9DED0E0A8DED040A8D
:100ED0009DED0D0A8DED030A9DED0C0A8DED020AC4
:100EE0009DED0B0A8DED010A1698D0F800010090D7
:100EF0009DED052ADDED041A9DED031ADDED020AD4
:100F00009DED010A009916988847169890ED320ACF
:100F1000DFEDE50AB4EEE00AF1EE10FA7DDD169899
:100F200090ED320A5FED290AB4EEE00AF1EE10FA14
:100F300073D214A80090DD4890ED000AFEEE000A7E
:100F400020EE200A8DED050A90ED000AFEEE000A63
:100F500020EE200A8DED040A159890ED320A8DEDF1
:100F6000030A1FED544ADDED053A9DED043AF1EE1A
:100F7000042AB1EE042A13ABDFEDCD1A12AAB0EEAB
:100F8000001A11A9DDED030A10A81FED4C0A15F097
:100F900063FB9DED140A8DED050A9DED130A8DEDA1
:100FA000040A9DED120A8DED030A9DED110A8DEDE7
:100FB000020A9DED100A8DED010A1598D0F8000186
:100FC00000909DED052ADDED041A9DED031ADDED7F
:100FD000020A9DED010A0099159888470FA8009014
:100FE000B24890ED010ADFEDB30A20EE200A8DED44
:100FF000050AD0ED010A9FEDB00A20EE800A8DEDC2
:10100000040A169890ED320A8DED030A1FED824A0C
:10101000DDED053A9DED043A00E036E0F1EE002A00
:10102000B1EE042A0EABF3EE0E1A0DAA1FED6F1AE5
:101030000CA9DDED030A0BA89FED9B0A15F00CFB34
:101040009DED0F0A8DED050A9DED0E0A8DED040A4A
:101050009DED0D0A8DED030A9DED0C0A8DED020A42
:101060009DED0B0A8DED010A1698D0F80001009055
:101070009DED052ADDED041A9DED031ADDED020A52
:101080009DED010A009916988847169890ED320A4E
:10109000DFED850AB4EEE00AF1EE10FA7DD2834866
:1010A00090ED020AB7EEC00AB7EE001B20EE010B6E
:1010B000B7EEC00B8DED050A1798D0F8000104902B
:1010C0009DED052ADFED771A9FED7C1A5FEDB20AE0
:1010D0009FED7B0A049917988847744890ED000AA1
:1010E000DFED780A20EE200A8DED050A1598D0F87C
:1010F000000104909DED052AF1EE041A9FED721A8D
:101100005FEDBF0A9FED670A0499159888470FA8FD
:101110000090664890ED010AFFEE000A20EE200ADA
:101120008DED050AD0ED010A9FED680A20EE800AD8
:101130008DED040A169890ED320A8DED030A9FEDAD
:10114000644ADDED053A9DED043AF1EE042AB0EE75
:10115000082A0EABDFED5F1A0DAA9FED5F1A0CA9EE
:10116000DDED030A0BA89FED5D0A15F0C5FA9DEDB4
:101170000F0A8DED050A9DED0E0A8DED040A9DED19
:101180000D0A8DED030A9DED0C0A8DED020A9DED11
:101190000B0A8DED010A169800E00FE0D0F800016F
:1011A00000909DED052ADDED041A9DED031ADDED9D
:1011B000020A9DED010A009916988847169890ED4D
:1011C000320ADFED470AB4EEE00AF1EE10FA67D218
:1011D000169890ED320ADFED430AB4EEE00AF1EE24
:1011E00010FA5DDD314890ED020AB7EEC00AB7EEA5
:1011F000001B20EE010BB7EEC00B8DED050A179812
:10120000D0F8000104909DED052ADFED261A9FED30
:101210002B1ADFED350A9FED2A0A049917988847A3
:10122000224890ED000ADFED270A20EE200A8DED1E
:10123000050A1598D0F8000104909DED052AF1EEFD
:10124000041A9FED1B1ADFED290A9FED290A049964
:101250001598884734E42748407A01287BD12548EF
:10126000C07A0128FAD12348C0780428F6D115A8FD
:1012700007C80EF0A5FE0D4880ED000AC0ED010A7A
:1012800080ED021A169890ED320ADFED1B0AB4EEDB
:10129000E00AF1EE10FA7DD2044890ED020A2DE04A
:1012A000E9E100009A99193F48E13AC0746D0024C1
:1012B00000005C426666E6BFCDCC4CBEB81E053E63
:1012C000000050C2CDCC4CBF000070428FC2F5BDB3
:1012D000295C8F3E00008242000000809A9989C0FC
:1012E000333333C09A9939C0000000009A9999BEEF
:1012F000CDCCCC3E98020024333323C0B7EEC00AD5
:101300009FEDFD1B20EE010BB7EEC00B8DED050A26
:101310001798D0F8000104909DED052A5FED1F1A83
:101320001FED1A1A5FED100A9FEDF50A0499179840
:101330008847F44890ED000A5FED1E0A20EE200A6F
:101340008DED050A1598D0F8000104909DED052A51
:10135000F1EE041A00E037E11FED2B1A5FED1E0AD3
:101360001FED300A0499159888470FA80090E548AA
:1013700090ED010AFFEE000A20EE200A8DED050A2D
:1013800090ED010ADFEDE00A20EE200A8DED040A5F
:10139000169800E040E090ED320A8DED030A1FED53
:1013A0002E4ADDED053A9DED043AF1EE042AB1EE48
:1013B000042A0EABDFEDD51A0DAAB0EE0C1A0CA95B
:1013C000DDED030A0BA81FED340A15F045F99DED7C
:1013D0000F0A8DED050A9DED0E0A8DED040A9DEDB7
:1013E0000D0A8DED030A9DED0C0A8DED020A9DEDAF
:1013F0000B0A8DED010A1698D0F8000100909DEDC2
:10140000052ADDED041A9DED031ADDED020A9DEDBE
:10141000010A009916988847169890ED320A5FEDF8
:101420004A0AB4EEE00AF1EE10FA54DD0FA800907B
:10143000B44890ED010AF8EE080A20EE200A8DED7E
:10144000050A90ED010AFEEE080A20EE200A8DED55
:10145000040A169890ED320A8DED030A9FEDAC4A0E
:10146000DDED053A9DED043AF1EE042AB1EE042AD1
:101470000EAB5FED6B1A0DAAB7EE081A0CA9DDEDE5
:10148000030A0BA8BFEE000A15F0E6F89DED0F0A5F
:101490008DED050A9DED0E0A8DED040A9DED0D0AF8
:1014A0008DED030A9DED0C0A8DED020A9DED0B0AF0
:1014B0008DED010A1698D0F8000100909DED052AE7
:1014C000DDED041A9DED031ADDED020A9DED010A22
:1014D000009916988847169890ED320ADFED8D0A2C
:1014E000B4EEE00AF1EE10FA3DD2169890ED320A11
:1014F000DFED890AB4EEE00AF1EE10FA33DD81483F
:1015000090ED020AF0EE000A20EE200A8DED050AA9
:101510001798D0F8000104909DED052AF6EE001A08
:101520009FED7B1A5FED900A9FED7C0A0499179856
:101530008847744890ED000A5FED9E0A20EE200A6D
:101540008DED050A1598D0F8000104909DED052A4F
:10155000F1EE041A1FEDAA1ADFED6D0A1FED9C0AC9
:10156000049915988847169890ED320ADFED6C0AB9
:10157000B4EEE00AF1EE10FA7DDD169890ED320A35
:10158000B7EEC00A9FED671BB4EEC10BF1EE10FA87
:1015900071D25C4890ED000ADFED640A20EE200A6B
:1015A0008DED050A1598D0F8000104909DED052AEF
:1015B000F1EE041A1FEDC21A5FEDB50A9FED5C0A49
:1015C00004991598884745E65A48407A01287DD104
:1015D0005848C07A002879D156480079002875D13A
:1015E0005448807A002871D1022153480160514843
:1015F000007DDFED520A9FED520AC82200210590BE
:1016000014F0EEFC4C4880ED020A9FED4E0A80ED8E
:10161000010AFFF773F84C4880ED000AC0ED010A9B
:1016200080ED021A15A807C80EF0CAFC354880EDF7
:10163000000AC0ED010A80ED021A90ED000AB7EE33
:10164000C00ABDEE001B20EE010BB7EEC00B8DED06
:10165000050A3D4890ED000ADFED3C0A30EE200A15
:101660008DED040A1598D0F8000103909DED052A30
:10167000F0EE001A00E0E5E29FED351A5FEDE60AB4
:101680009DED040A0399159888471E4890ED010ABC
:10169000B1EE400A8DED050A2B4890ED010AB1EE3E
:1016A000400A8DED040A1698D0F8000103909DEDD4
:1016B000052AF0EE001AB3EE0E1A5FEDF50A9DED65
:1016C000040A039916988847169800E06DE090ED9B
:1016D000320AB1EE400A1598D0ED320A30EE600AB7
:1016E000B7EEC00A9FED1B1B30EE010B9FED1B1BDD
:1016F00030EE010B36E000009A9999999999B93F1B
:10170000000000C2746D00243333D3BF0000484290
:101710009A99993E9A99F9BF333303C00000044166
:10172000CDCC8CBFCDCCCCCCCCCCECBF9A9999BFD6
:10173000EC51383E980200245C6D00246666263F1A
:1017400014AEC73E295C0F3E686D00246666E63E17
:101750000000204285EB51B81E85DB3F00000000F1
:10176000000000009FEDFE1B30EE010BBBEE091BDD
:1017700020EE010BB7EEC00B8DED040AFA4890ED98
:10178000020A8DED050A1798D0F8000103909DED2F
:10179000052AF7EE081AB0EE081ADFEDF40A9DEDFF
:1017A000040A03991798884754E5F148407A0128BC
:1017B0003FD1EF48C07AE0BBED480079012838D12D
:1017C000EB48807AA8BB15A807C80EF0F9FBE648DD
:1017D00080ED000AC0ED010A80ED021A90ED000ACA
:1017E000B7EEC00A9FEDE31B20EE010BB7EEC00B76
:1017F0008DED050A1598D0F8000104909DED052A9D
:10180000F1EE001A1FED2E1ADFEDD80A9FEDDB0A6C
:10181000049915988847D44890ED010ADFEDD80A5D
:1018200020EE200A8DED050A1698D0F800010490EC
:1018300000E051E09DED052AF1EE001A1FED3C1A83
:10184000DFEDCA0A9FEDCF0A0499169888470AA8C7
:101850000090179890ED320A8DED050A9FEDCA4A67
:10186000DFEDC23A9FEDC13ADFEDC42A9FEDC72AF2
:1018700009ABF7EE001A08AA9FEDC51A07A9DDED1E
:10188000050A06A89FEDC30A14F0E6FE9DED0A0ABC
:101890008DED050A9DED090A8DED040A9DED080AFE
:1018A0008DED030A9DED070A8DED020A9DED060AF6
:1018B0008DED010A1798D0F8000100909DED052AE2
:1018C000DDED041A9DED031ADDED020A9DED010A1E
:1018D000009917988847BDE4A548407A01287DD132
:1018E000A348C07A012879D1A148C078012875D1D0
:1018F0000520A94908609E48007DF6EE080A9FED84
:10190000A70AC8220021059014F06AFBA24880EDC6
:10191000020A9FEDA30A80ED010AFEF7EFFEA1483F
:1019200080ED000AC0ED010A80ED021A15A807C873
:101930000EF046FB8C4880ED000AC0ED010A80EDF8
:10194000021A90ED000AB7EEC00ABDEE001B20EEB1
:10195000010BB7EEC00B8DED050A924890ED000A21
:101960005FED860A30EE200A8DED040A1598D0F856
:10197000000103909DED052AF0EE001A1FED9D1A5F
:10198000DFED7A0A9DED040A039915988847764899
:1019900090ED010AB7EEC00ABEEE001B20EE010B6F
:1019A000B7EEC00B8DED050A7E4890ED010AB1EE51
:1019B000400A8DED040A1698D0F8000103909DEDC1
:1019C000052AF1EE041A9FED781ADFED680A9DED05
:1019D000040A039916988847159800E03DE090EDB9
:1019E000320ADFED720A30EE200AB7EEC00A1FEDB0
:1019F000A71B30EE411B169890ED320AB7EEC00AD5
:101A000031EE000B9FED6A1B30EE410BB3EE091B6C
:101A100020EE010BB7EEC00B8DED040A524890ED9D
:101A2000020AB7EEC01A9FED640B21EE000BB7EE71
:101A3000C00B8DED050A1798D0F8000103909DEDBD
:101A4000052ADFED531A9FED5E1ADFED480A9DED82
:101A5000040A039917988847F4E04548407A01281A
:101A60007CD14348C07A012878D14148C078022807
:101A700074D10620484908603D48007DF6EE080A0A
:101A80009FED460AC8220021059014F0A9FA4248A9
:101A900080ED020AB6EE080A80ED010AFEF72EFE7E
:101AA000404880ED000AC0ED010A80ED021A15A839
:101AB00007C80EF085FA2C4880ED000AC0ED010A37
:101AC00080ED021A90ED000AB7EEC00ABDEE001BD1
:101AD00020EE010BB7EEC00B8DED050A314890EDFD
:101AE000000A5FEDE60A30EE200A8DED040A159833
:101AF000D0F8000103909DED052AF0EE081A9FED45
:101B0000311ADFED1A0A9DED040A039915988847EA
:101B1000154890ED010AB7EEC00ABEEE001B20EE9C
:101B2000010BB7EEC00B8DED050A1E4890ED010AC2
:101B3000B1EE400A8DED040A1698D0F8000103902A
:101B40009DED052AF1EE041A9FED171ADFED070A45
:101B50009DED040A03991698884735E073E000006C
:101B600099999919C728DE3F746D00240000000080
:101B700098020024666666666666D6BFCDCCCC3E0B
:101B80009A9999BEE17A14BF3946713FCDCC4C3F4A
:101B9000CDCCCC3D0000DC415C6D00240AD7A33ED7
:101BA000713D0A3F686D002400007042DA0FC93FA2
:101BB00052B81E85BF15B03F9A9999999999E93FF6
:101BC0009A99193E00003442159890ED320A5FED63
:101BD000090A30EE200AB7EEC00A9FEDFD1B30EE79
:101BE000411B169890ED320AB7EEC00A31EE000B99
:101BF0001FED111B30EE410BB3EE091B20EE010B64
:101C0000B7EEC00B8DED040AF34890ED020AB7EE73
:101C1000C00A1FED171B20EE010BB7EEC00B8DEDB8
:101C2000050A1798D0F8000103909DED052A5FED95
:101C3000281A1FED1D1A5FED330A9DED040A039962
:101C40001798884703E2E548407A01287ED1E348A7
:101C5000C07A02287AD1E148007A002876D107219B
:101C6000DF480160DD48007DF6EE080A1FED350A09
:101C7000C8220021059014F0B3F9D94880ED020A7A
:101C80009FEDD80A80ED010AFEF738FDD64880EDB9
:101C9000000AC0ED010A80ED021A15A807C80EF06F
:101CA0008FF9CD4880ED000AC0ED010A80ED021ADF
:101CB00090ED000AB7EEC00ABFEE081B20EE010B44
:101CC000B7EEC00B8DED050AC74890ED000ADFEDB9
:101CD000C70A30EE200A8DED040A1598D0F80001ED
:101CE00003909DED052AC248D0ED001AC14890ED41
:101CF000001A5FED620A9DED040A03991598884762
:101D0000B94890ED010AB1EE400AB7EEC00A159845
:101D100090ED321AB7EEC11A9FEDB72B31EE422B80
:101D200090ED321AB7EEC11A02EE010BB7EEC00BFE
:101D30008DED040AA84890ED010AB7EEC00A9FEDA8
:101D4000B01B20EE010BB7EEC00B00E05EE08DEDA6
:101D5000050A1698D0F8000103909DED052AF1EED2
:101D6000041A9FEDA91A5FED7F0A9DED040A0399FD
:101D700016988847159890ED320AB7EEC01A9FED75
:101D8000A30BB7EE082B02EE010B9FED911B30EE7B
:101D9000411B169890ED320AB7EEC00A31EE000BE7
:101DA000159890ED321AB7EEC11A9FED932B32EED3
:101DB000412B90ED321AB7EEC11A02EE010BB3EED1
:101DC000091B20EE010BB7EEC00B8DED040A824813
:101DD00090ED020AB7EEC00AB7EE081B20EE010B29
:101DE000B7EEC00B8DED050A1798D0F800010390EF
:101DF0009DED052A5FED9F1AB7EE081A5FEDA50A63
:101E00009DED040A03991798884720E17348407AAA
:101E100001287DD17148C07A022879D16F48007AB3
:101E2000022875D109216E48016015A807C80EF077
:101E3000C7F8694880ED000AC0ED010A80ED021A7A
:101E4000169890ED320ADFED730AB4EEE00AF1EE77
:101E500010FA23D2169890ED320ADFED6F0AB4EE35
:101E6000E00AF1EE10FA19DD5B4890ED010AFFEE91
:101E7000000A20EE200A8DED050A1698D0F8000120
:101E800004909DED052AF1EE041A9FED641A5FEDB2
:101E9000C90A9FED630A049916988847169890ED31
:101EA000320ADFED5D0AB4EEE00AF1EE10FAACD2D0
:101EB000169890ED320ADFED5B0AB4EEE00AF1EE1F
:101EC00010FAA2DD0AA80090434890ED020A5FEDE7
:101ED000C40A20EE200A8DED050A90ED020A5FED9E
:101EE000D90A20EE200A8DED040A179890ED320AE7
:101EF0008DED030A9FED4C4ADDED053A9DED043A68
:101F00005FEDE22AB7EE002A09ABF7EE001A00E017
:101F10009EE008AA1FEDE61A07A9DDED030A06A850
:101F20009FED420A14F098FB9DED0A0A8DED050A1B
:101F30009DED090A8DED040A9DED080A8DED030A59
:101F40009DED070A8DED020A9DED060A8DED010A51
:101F50001798D0F8000100909DED052ADDED041AD8
:101F60009DED031ADDED020A9DED010A0099179817
:101F70008847179890ED320ADFED2D0AB4EEE00A9B
:101F8000F1EE10FA93D2179890ED320ADFED290A9C
:101F9000B4EEE00AF1EE10FA93DD0F4890ED000A7E
:101FA000B7EEC00A9FED241B20EE010BB7EEC00B6D
:101FB0008DED050A1598D0F8000104909DED052AD5
:101FC000F1EE041A9FED101ADFED1D0A3AE0000051
:101FD00085EB51B81E85DB3F746D00249802002408
:101FE0005C6D002452B81E3F686D00246666E63EB4
:101FF0003C03002438030024295C8FC2F528BC3F31
:10200000333333333333E3BF0000824200000040F8
:10201000FB21F93F713D8ABEA4703DBF00004842DC
:102020005C8F42BF14AE47BF0100F040000072C297
:10203000000024C200002CC2666666666666D6BFD3
:10204000000000001FED190A049915988847B5E3B0
:10205000FD48407A01287CD1FB48C07A0128FAD19A
:10206000F948C0780528F6D10A20F849086015A873
:1020700007C80DF0A5FFF64880ED000AC0ED010A83
:1020800080ED021A169890ED320ADFEDF20AB4EEF6
:10209000E00AF1EE10FA54DD0FA80090EC4890ED44
:1020A000010AF8EE000A20EE200A8DED050A90EDF7
:1020B000010AFEEE000A20EE200A8DED040A1698B1
:1020C00090ED320A8DED030A1FED234ADDED053A4E
:1020D0009DED043AF1EE002AB1EE042A0EABF3EEC8
:1020E0000E1A0DAAB7EE001A0CA9DDED030A0BA813
:1020F0009FEDD80A14F0B0FA9DED0F0A8DED050A98
:102100009DED0E0A8DED040A9DED0D0A8DED030A7D
:102110009DED0C0A8DED020A9DED0B0A8DED010A75
:102120001698D0F8000100909DED052ADDED041A07
:102130009DED031ADDED020A9DED010A0099169846
:102140008847169890ED320ADFEDC30AB4EEE00A34
:1021500000E0C9E1F1EE10FA7DDD169890ED320A4B
:10216000DFEDBC0AB4EEE00AF1EE10FA73D214A867
:102170000090B74890ED000AFEEE000A20EE200A1B
:102180008DED050A90ED000AFEEE000A20EE200A11
:102190008DED040A159890ED320A8DED030A9FED3E
:1021A000AF4ADDED053A9DED043AF1EE042AB1EEB9
:1021B000042A13ABDFEDAA1A12AAB7EE001A11A96E
:1021C000DDED030A10A89FEDA70A14F045FA9DED76
:1021D000140A8DED050A9DED130A8DED040A9DED9F
:1021E000120A8DED030A9DED110A8DED020A9DED97
:1021F000100A8DED010A1598D0F8000100909DEDB0
:10220000052ADDED041A9DED031ADDED020A9DEDB0
:10221000010A0099159888470FA800908C4890ED06
:10222000010ADFED910A20EE200A8DED050A90EDFE
:10223000010ADFED8E0A20EE200A8DED040A1698C1
:1022400090ED320A8DED030A1FED834ADDED053A6C
:102250009DED043A00E036E0F1EE002AB1EE042AEA
:102260000EABF3EE0E1A0DAAB6EE001A0CA9DDEDB8
:10227000030A0BA89FED780A14F0EEF99DED0F0A02
:102280008DED050A9DED0E0A8DED040A9DED0D0AFA
:102290008DED030A9DED0C0A8DED020A9DED0B0AF2
:1022A0008DED010A1698D0F8000100909DED052AE9
:1022B000DDED041A9DED031ADDED020A9DED010A24
:1022C000009916988847169890ED320ADFED620A59
:1022D000B4EEE00AF1EE10FA7ED25D4890ED020A0B
:1022E000DFED630A20EE200A8DED050A1798D0F87D
:1022F000000104909DED052ADFED5E1A9FED571A4F
:102300005FEDB10A5C4890ED000A04991798884780
:102310004F4890ED000ADFED590A20EE200A8DEDBE
:10232000050A1598D0F8000104909DED052AF1EEFC
:10233000041A9FED531A5FEDBE0A524890ED000A51
:102340000499159888470FA80090414890ED010A1C
:10235000DFED4D0A20EE200A8DED050AD0ED010AD1
:102360009FED490A20EE800A8DED040A169890ED43
:10237000320A8DED030A9FED454ADDED053A9DEDEC
:10238000043AF1EE042AB0EE082A0EAB5FEDE21A31
:102390000DAA9FED3F1A0CA9DDED030A0BA83D4CD9
:1023A00094ED000A14F0A8F99DED0F0A8DED050AD1
:1023B0009DED0E0A8DED040A9DED0D0A8DED030ACB
:1023C0009DED0C0A8DED020A9DED0B0A8DED010AC3
:1023D0001698D0F8000100E00DE000909DED052A70
:1023E000DDED041A9DED031ADDED020A9DED010AF3
:1023F000009916988847169890ED320ADFED260A64
:10240000B4EEE00AF1EE10FA6DD2169890ED320AB1
:10241000DFED220AB4EEE00AF1EE10FA63DD0C48BB
:1024200090ED000ADFED150A20EE200A8DED050A79
:102430001598D0F8000104909DED052AF1EE041ADC
:102440009FED0F1A2CE00000980200245C6D002420
:10245000746D00243333F3BF48E13AC09A99993E32
:1024600000005C42CDCCCC3E6666E6BFCDCC4CBE17
:10247000CDCC4C3E9A99193F48030024CDCC4CBF9B
:102480000000704240030024CDCCCCBD295C8F3EBF
:10249000CDCC4C3D440300246666A6BF3333B3BFA6
:1024A000DFEDC80AC84890ED000A049915988847DE
:1024B000C64890ED020A5FED120A20EE200A8DED6B
:1024C000050A1798D0F8000104909DED052A5FEDEC
:1024D000171A1FED1E1ADFEDBB0ABD4890ED000A6A
:1024E00004991798884769E1BA48407A0128FAD1D7
:1024F000B848C07A0128F6D1B648C0780628F2D18B
:102500000B20B549086015A807C80DF059FDAF4864
:1025100080ED000AC0ED010A80ED021A169890EDD8
:10252000320ADFEDAE0AB4EEE00AF1EE10FA6ED236
:10253000A64890ED000A5FED2F0A20EE200A8DEDEF
:10254000050A1598D0F8000104909DED052AF1EEDA
:10255000041A1FED3D1ADFED9B0A1FED400A049996
:10256000159888470FA80090984890ED010AFFEE53
:10257000000A20EE200A8DED050AD0ED010A9FED3C
:10258000980A20EE800A8DED040A169890ED320A22
:102590008DED030A9FED8B4ADDED053A9DED043A82
:1025A000F1EE042AB1EE042A0EABDFED8E1A0DAA6D
:1025B000B0EE0C1A0CA9DDED030A0BA89FED870AFB
:1025C00014F04AF89DED0F0A8DED050A9DED0E0AF7
:1025D0008DED040A9DED0D0A8DED030A9DED0C0AAB
:1025E0008DED020A9DED0B0A8DED010A1698D0F8CB
:1025F000000100909DED052ADDED041A9DED031A02
:10260000DDED020A9DED010A00991698884716989B
:1026100090ED320ADFED710AB4EEE00AF1EE10FA45
:1026200054DD0FA80090694890ED010AF8EE080A01
:1026300020EE200A8DED050A90ED010AFEEE080A53
:1026400020EE200A8DED040A169890ED320A8DEDE9
:10265000030A1FED7E4ADDED053A9DED043AF1EEE9
:10266000042AB1EE042A0EAB5FED7B1A0DAAB7EE79
:10267000081A0CA9DDED030A0BA89FED5B0A13F005
:10268000EBFF9DED0F0A8DED050A9DED0E0A8DED18
:10269000040A9DED0D0A8DED030A9DED0C0A8DEDEA
:1026A000020A9DED0B0A8DED010A1698D0F8000183
:1026B00000909DED052ADDED041A9DED031ADDED78
:1026C000020A9DED010A009916988847169890ED28
:1026D000320ADFED460AB4EEE00AF1EE10FA3DD21E
:1026E000169890ED320AF8EE040AB4EEE00AF1EE24
:1026F00010FA33DD354890ED020AF0EE000A20EEC4
:10270000200A8DED050A1798D0F8000104909DED80
:10271000052AF6EE001A1FEDAF1ADFED2A0AB2EE17
:102720000E0A049917988847284890ED000A5FED33
:10273000AD0A20EE200A8DED050A1598D0F80001AB
:1027400004909DED052AF1EE041A1FEDBB1A5FED12
:10275000BD0A9FED270A049915988847169890EDB1
:10276000320ADFED240AB4EEE00AF1EE10FA25DDBC
:10277000169890ED320AB7EEC00A9FED1F1BB4EE1B
:10278000C10BF1EE10FA19D2104890ED000ADFEDFE
:102790001C0A20EE200A8DED050A1598D0F80001DC
:1027A00004909DED052AF1EE041A1FEDD31ADFED1A
:1027B000050A9FED0F0A049915988847002018B064
:1027C00010BD00000000000040030024746D0024D0
:1027D00048030024980200245C6D0024333323C096
:1027E0003333D3BF00004842CDCC8CBF9A9919C077
:1027F000CDCCCC3DCDCCCCBF666666666666F6BFFA
:102800009A9999BF00B587B0FE48007805287DD019
:10281000FC48007800287AD10B20FB49086014217D
:1028200002A8FDF71FFEF94AF949FA480DF0C8FB66
:10283000F94880ED000AC0ED010A80ED021AF44863
:1028400090ED320ADFEDF50AB4EEE00AF1EE10FA8F
:1028500056D2F14890ED000ADFEDF10A20EE200A91
:10286000B0EE402AEB48F1EE041A9FEDEE1ADFEDD0
:10287000EE0A9FEDEE0AD0F80011884706A80090F6
:10288000E54890ED010ABFEE001A20EE010AF0EED5
:10289000403A90ED010A9FEDE61A20EE010AB0EEF3
:1028A000403ADB4890ED320AF0EE400A9FEDDE4AF6
:1028B000F1EE042AB1EE042A05ABDFEDDE1A04AA1C
:1028C000B0EE0C1A03A902A89FEDD40A13F0C4FEBF
:1028D000DDED062AB0EE622ADDED052AF0EE621A81
:1028E000DDED042AB0EE621ADDED032AF0EE620A95
:1028F000DDED022AB0EE620AC548D0F80011884723
:10290000C34890ED320ADFEDC50A01E061E2ECE078
:10291000B4EEE00AF1EE10FA41DD06A80090BE48E0
:1029200090ED010AB8EE081A20EE010AF0EE403AE6
:1029300090ED010ABEEE081A20EE010AB0EE403A10
:10294000B34890ED320AF0EE400AB6EE004AF1EEDE
:10295000042AB1EE042A05ABDFEDB71A04AAB7EEDC
:10296000081A03A902A89FEDB50A13F075FEDDED64
:10297000062AB0EE622ADDED052AF0EE621ADDEDE0
:10298000042AB0EE621ADDED032AF0EE620ADDEDF4
:10299000022AB0EE620A9E48D0F8001188479C488F
:1029A00090ED320ADFEDA60AB4EEE00AF1EE10FA7D
:1029B00032D290ED320AF8EE040AB4EEE00AF1EEFB
:1029C00010FA29DD944890ED020AF0EE000A20EE9C
:1029D000200AB0EE402A8D48F6EE001A9FED991AB3
:1029E000DFED910AB2EE0E0AD0F8001188478A484E
:1029F00090ED000ADFED8A0A20EE200AB0EE402AB0
:102A00008448F1EE041A9FED871ADFED8E0A9FEDE0
:102A10008E0AD0F8001188477D4890ED320ADFED2C
:102A20008B0AB4EEE00AF1EE10FA1FDD90ED320AE7
:102A3000B7EEC00A9FED861BB4EEC10BF1EE10FAA3
:102A400014D2754890ED000ADFED830A20EE200ACB
:102A5000B0EE402A6F48F1EE041A9FED721ADFEDD6
:102A6000720A9FED790AD0F800118847694890ED05
:102A7000320AB7EEC00A9FED791BB4EEC10BF1EE3E
:102A800010FA31D290ED320AB7EEC00AB5EEC00BA3
:102A9000F1EE10FA28DD5E4890ED320ADFED710AA2
:102AA000B4EEE00AF1EE10FA1ED290ED320AFFEE1B
:102AB000080AB4EEE00AF1EE10FA15DD534890ED85
:102AC000320AF3EE040AB4EEE00AF1EE10FA0BDD7E
:102AD00090ED320ADFED640AB4EEE00AF1EE10FA8E
:102AE00002D201204749087045E246480078012893
:102AF00067D19FED5E0A5E4880ED000A9FED4A0AAD
:102B000080ED010A9FED5B0A80ED020A9FED4E0AFF
:102B100080ED030A9FED440A80ED040AD0ED042AFB
:102B2000B0EE622AD0ED032AF0EE621AD0ED022A4E
:102B3000B0EE621AD0ED012AF0EE620AD0ED002A62
:102B4000B0EE620A4C48D0F8001188479FED4B0A5E
:102B50004B4880ED000A9FED340A80ED010A9FED9D
:102B6000490A80ED020A9FED480A80ED030A9FEDB5
:102B70002E0A80ED040AD0ED042AB0EE622AD0EDD0
:102B8000032AF0EE621AD0ED022AB0EE621AD0EDFE
:102B9000012AF0EE620AD0ED002AB0EE620A3B484C
:102BA000D0F800118847344890ED320ADFED380A3A
:102BB000B4EEE00AF1EE10FA96DD02201149087039
:102BC000D9E110480078022868D1142102A8FDF745
:102BD00049FC0E4A0E490F480DF0F2F90E4880EDFF
:102BE000000AC0ED010A80ED021A90ED000AB7EE6E
:102BF000C00A9FED281B20EE010BB7EEC00BB0EE14
:102C0000402A4CE0290200245C6D0024E06400248A
:102C1000D8630024D0620024746D0024333323C0B1
:102C2000CDCC4CBF00005C42000000009A99193FD7
:102C30003333D3BF0000484200007042CDCC8CBF7C
:102C40009A9919C09A99993ECDCCCC3DCDCCCCBFA8
:102C5000666666666666F6BF9A9999BF9A9999996B
:102C60009999D93F9A9959BF000010426666C63FAC
:102C7000F0660024CDCC0C40E86500246666E6BF13
:102C8000806C00249A99993FCDCC4C3E286B00244F
:102C90006666A63F666666666666D6BF9AE0FE48CA
:102CA000F0EE081AB3EE0E1A5FED210A9FEDFB0A53
:102CB000D0F800118847FA4890ED010ADFEDF90AD3
:102CC00020EE200AB0EE402AF748F0EE081AB3EEE4
:102CD0000E1A5FED2B0A9FEDF50AD0F80011884718
:102CE00006A80090F24890ED320AF0EE400A9FEDFF
:102CF000F14A5FED333A1FED343ADFEDEF2A9FEDF5
:102D0000EF2A05ABF7EE001A04AA1FED311A03A94A
:102D100002A8B3EE0C0A13F09FFCDDED062AB0EE1C
:102D2000622ADDED052AF0EE621ADDED042AB0EE2E
:102D3000621ADDED032AF0EE620ADDED022AB0EE42
:102D4000620ADB48D0F800118847D34890ED320A78
:102D5000B7EEC00A1FED3F1BB4EEC10BF1EE10FA47
:102D600037DD90ED320AB7EEC00A9FEDD51BB4EE09
:102D7000C10BF1EE10FA2CD2CB4890ED320AB7EE2F
:102D8000C00A9FEDD11BB4EEC10BF1EE10FA20DDAD
:102D900090ED320AB7EEC00A9FEDCD1BB4EEC10B29
:102DA000F1EE10FA15D2C24890ED320ADFEDCA0AF0
:102DB000B4EEE00AF1EE10FA0BDD90ED320ADFED31
:102DC000C70AB4EEE00AF1EE10FA02D20320C449B9
:102DD0000870D0E0C248007803287DD10220C149A4
:102DE00008609FEDC10A084680ED020A9FEDBF0A08
:102DF00080ED010AFDF782FCBD4880ED000AC0EDC0
:102E0000010A80ED021AAA4AA749A3480DF0D8F892
:102E1000A34880ED000AC0ED010A80ED021AD0ED52
:102E2000000AB7EEE01ABDEE003B21EE031BF7EE01
:102E3000C10BB0EE602AAE48D0ED000A9FEDAD1A8E
:102E400070EE810AB0EE600A9348F1EE041A1FEDAD
:102E5000871A5FED8B0AD0F8001188479048D0EDB3
:102E6000010AF1EE600AB0EE602AA148D0ED010A35
:102E7000F1EE600AB0EE600A8B48F1EE041A1FED25
:102E8000931A5FED970AD0F8001188478648D0ED75
:102E9000320AF1EE600A804890ED321A70EEC10AF3
:102EA000B7EEE01A9FED943B31EE031B9FED943B90
:102EB00031EE031B9FED943B31EE031BBBEE093B50
:102EC00021EE031BF7EEC10BB0EE600A7448D0EDA3
:102ED000020AB0EE602A00E04DE07548F0EE041AF8
:102EE000B0EE081A5FEDB00AD0F8001188476A48C2
:102EF00090ED320AB7EEC00A9FED851BB4EEC10B10
:102F0000F1EE10FA37D290ED320AB7EEC00A9FED1B
:102F1000821BB4EEC10BF1EE10FA2CDD624890ED8D
:102F2000320AB7EEC00A9FED7E1BB4EEC10BF1EE84
:102F300010FA20DD90ED320AB7EEC00ABDEE001B9C
:102F4000B4EEC10BF1EE10FA15D2594890ED320AE9
:102F5000FBEE0F0AB4EEE00AF1EE10FA0BDD90ED95
:102F6000320AFAEE020AB4EEE00AF1EE10FA02D2E8
:102F700004205B4908705A48007801287DDB6A48C4
:102F80000078042879DA6948C07A002875D1684841
:102F90000090684890ED320AF0EE400A1FEDC75AE3
:102FA0005FEDD84A9FED644AF7EE003AB6EE003A7C
:102FB000F0EE002A5E4B1B1FB1EE002A1A1FF2EE44
:102FC000001AB3EE021A111F081FB2EE090A13F01D
:102FD000E7FB5A4800905A4890ED320AF0EE400A5A
:102FE0001FEDD85A5FEDE94A9FED534AF7EE003ADC
:102FF000B6EE003AF0EE002A504B1B1FB1EE002A4D
:103000001A1FF2EE001AB3EE021A111F081FB2EED9
:10301000090A13F0C5FB4A4890ED351AF0EE410A53
:10302000444890ED351AB0EE410A444813F0B0FA26
:10303000434890ED321AF0EE410A3E4890ED321AC4
:10304000B0EE410A3D4816F0CBFB39481038D0EDC0
:10305000042AB0EE622AD0ED032AF0EE621AD0ED17
:10306000022AB0EE621AD0ED012AF0EE620AD0ED2B
:10307000002AB0EE620A2F4800E073E0D0F8001199
:1030800088472E481038D0ED042AB0EE622AD0EDE1
:10309000032AF0EE621A55E0D06200243D0AD73EC2
:1030A000746D00249A9999BED863002414AEC7BEEB
:1030B000E06400243946713FCDCCCC3ECDCC4C3FB2
:1030C000333333333333E33F7B14AE47E17AD4BF3A
:1030D000EC51B81E85EBD1BF6666C6419A99F141A5
:1030E000290200245C6D0024BA49EC3E295C0F3EA5
:1030F000686D00246666E63E85EB51B81E85DB3FB1
:1031000000000000000000007B14AE479F20D83F65
:10311000333333333333EB3F5C8FC2F5285CDF3F0F
:1031200085EB51B81E85E3BF1802002498020024E5
:103130007469002454670024CDCC4C3D8869002478
:103140005C680024D0ED022AB0EE621AD0ED012AAC
:10315000F0EE620AD0ED002AB0EE620A0248D0F822
:103160000011884707B000BD5C68002400B599B025
:103170000020119012900220139001201490002042
:103180001590169011A9484804F0AFF808B101F065
:1031900076FD00200346022211460090424804F0CA
:1031A000F8F808B101F06BFD002201213E4803F060
:1031B000FFFF08B101F063FD00224FF038613A488B
:1031C00003F0F6FF08B101F05AFD374804F053FF51
:1031D00008B101F054FD002009900A9002200B90E4
:1031E00001200C9000200D900E9009A92F4804F0AA
:1031F0007CF808B101F043FD00200346022211468D
:1032000000902A4804F0C5F808B101F038FD00220A
:103210000121264803F0CCFF08B101F030FD002267
:103220004FF03861214803F0C3FF08B101F027FDDA
:103230001E4804F020FF08B101F021FD002001909C
:103240000290022003900120049000200590069037
:1032500001A9174804F049F808B101F010FD002059
:103260000346022211460090114804F092F808B17A
:1032700001F005FD002201210D4803F099FF08B17E
:1032800001F0FDFC00224FF03861094803F090FF87
:1032900008B101F0F4FC064804F0EDFE08B101F0BD
:1032A000EEFC19B000BD00008C0400242C050024A5
:1032B000CC05002438B5242000901D48006800F19A
:1032C00024011C4BA3F1320219480DF0EFFE082037
:1032D00019490968086218480068406A20201649A0
:1032E000C1F88C0020221549134809F071FE0446EC
:1032F0001149D1F880100868016801F0010129B96D
:1033000020214160016841F0010101600A48006824
:10331000806840F0400008490968886006480068F5
:10332000006840F0100004490968086038BD0000DA
:10333000E80700240A6D0024CC0A00243C6D002418
:103340000E4840780D4908700846807848700C484F
:10335000807988700846007870B90846407801285E
:103360000AD108468078012806D106480078401C1A
:10337000044908700120487070470000FF010024D4
:1033800098020024F80100240021416001214170CD
:103390007047014648787047012141700021416023
:1033A000704702214170704701214170704700BF92
:1033B000FEE770B504460D461646042C15D007DC12
:1033C0007CB1012C0ED0022C0DD0032C14D10BE0BB
:1033D000202C0BD0212C0AD0222C09D0232C0BD14D
:1033E00009E00AE009E008E007E006E005E004E0A3
:1033F00016F066FF01E000E000BF00BF002070BDD6
:103400000020704710B50022084909480EF00BF95A
:10341000084907480EF0F8F80020074908700749E6
:10342000074815F0CFFF002010BD00009C7C002451
:103430009C8400249C74002481030024C982000819
:10344000E9A2010870B504460D466CB165B1286863
:1034500050B1002600BF03E0A05D15F035FF761CDB
:103460002868B042F8D800BF214604480EF0CCF8D6
:1034700002480EF095F8002070BD00009C840024E6
:103480002DE9F04105460E46174600240348007812
:1034900008B916F015FF60B2BDE8F0818103002481
:1034A0002DE9F04104460D4600260A48D0F8BC72CA
:1034B000D7F8140210B10120BDE8F0812A46214658
:1034C00004480EF0B0F803480EF060F906463046A6
:1034D000F2E700009C84002410B504460020F9495E
:1034E0000870F948C07C012822D19FEDF80AF848FD
:1034F00080ED000A9FEDF70A80ED010A9FEDF30AC7
:1035000080ED020A9FEDF30A80ED030A9FEDF20AB7
:10351000F24880ED000A9FEDF00A80ED010A9FED70
:10352000EE0A80ED020A9FEDEC0A80ED030AE5E267
:10353000E54890F9170010F1080F2BDDE24890F9EB
:103540001700082826DAE04890F9160010F1080F55
:1035500020DDDD4890F9160008281BDADA4890F9DA
:10356000150010F1080F15DDD74890F9150008284F
:1035700010DA9FEDD90A84ED180A9FEDD70A84ED81
:10358000190A9FEDD50A84ED1A0A9FEDD30A84ED3E
:103590001B0AB3E2CC49087DDFEDD10A9FEDCE0ACC
:1035A000C822002116F012F8CE4880ED000AC64964
:1035B00091F91700B7EE001ADFEDC70ABFEE000A57
:1035C00064230022594215F065FFB1EE400AC64857
:1035D00080ED000ABC4991F91600B7EE001ADFED44
:1035E000BE0ABFEE000A64230022594215F052FFC2
:1035F000B1EE400ABD4880ED000AB34991F91500CB
:103600009FEDBB1ADFEDB40A9FEDBA0A64230022D6
:10361000594215F03FFFB84880ED000AAA48807C67
:1036200001280DD1B04890ED000AB1EE400A80EDBE
:10363000000AAE4890ED000AB1EE400A80ED000AA3
:10364000A84890ED000A84ED170AA74890ED000AFB
:1036500084ED140AA54890ED000A84ED150AA648E9
:1036600090ED000A84ED160A9F4890ED001AA248DA
:10367000D0ED001A9FEDA12A01EEC21AF0EE410A28
:103680009A4890ED001A9C48D0ED001A9FED9B2AB5
:1036900001EE821AB0EE410A10F024FB984880ED4A
:1036A000000A914890ED001A9348D0ED001A9FED62
:1036B000932A01EEC21AF0EE410A8C4890ED001AEE
:1036C0008D48D0ED001A9FED8F2A01EE821AB0EEE0
:1036D000410A10F007FB8A4880ED010A824890ED0C
:1036E000001A8548D0ED001A9FED862A01EEC21A15
:1036F000F0EE410A7D4890ED001A7F48D0ED001AA7
:103700009FED802A01EE821AB0EE410A10F0EAFA2B
:103710007B4880ED020A744890ED001A7648D0ED9F
:10372000001A9FED782A01EEC21AF0EE410A6F48A6
:1037300090ED001A7048D0ED001A9FED702A01EE4E
:10374000821AB0EE410A10F0CDFA6D4880ED030AFE
:103750006548D0ED000A684890ED001ADFED671A61
:1037600041EE610A60EEA00A604890ED001A6248DE
:10377000D0ED001A9FED612A01EE821A5B48D0ED70
:10378000001A5D4890ED002ADFED5C2A42EE221A15
:1037900041EE210AB0EE600A10F0CBFEB1EE400A15
:1037A000DFED590A80EE201A584880ED001A4E4885
:1037B000D0ED000A504890ED001ADFED501A41EEAE
:1037C000610A20EEA01A4948D0ED000A4A48D0ED1F
:1037D000001A9FED4C2A41EE820A4448D0ED001AAF
:1037E000454890ED002ADFED472A42EE221A00EE0E
:1037F000A11AB0EE410A10F09CFEB1EE400ADFEDD6
:10380000420A80EE201A414880ED011A3648D0ED78
:10381000000A394890ED001ADFED3A1A41EE610ACC
:1038200060EEA01A314890ED001A3348D0ED000A3E
:103830009FED342A00EE821A2C48D0ED000A2E4863
:1038400090ED002ADFED2F2A42EE220A41EE201AE7
:10385000B0EE610A10F06DFEDFED2B0A80EE201A4B
:103860002A4880ED021A2048D0ED000A224890ED47
:10387000001ADFED241A41EE610A60EEA00A1B482F
:1038800090ED001A1C48D0ED001A9FED1C2A01EEA5
:10389000821A1648D0ED001A174890ED002ADFED85
:1038A000172A42EE221A41EE210AB0EE600A10F009
:1038B00040FEDFED150A80EE201A144880ED031A51
:1038C000002018E16001002498020024C3F548BFDD
:1038D00058620024C3F5483F00000000286200241D
:1038E0000000204264010024680100246C010024CF
:1038F0006666E63F6666E6BF7001002439B4C83EDE
:103900001862002439B4C8BE68916D3D4862002435
:103910007B4901EB800191ED000A7A4901EB8001BE
:10392000D1ED000A30EE600A774901EB800181EDAC
:10393000000A0DE0744901EB800191ED000ADFED12
:10394000730A30EE200A704901EB800181ED000A14
:103950006D4901EB800191ED000ADFED6D0AB4EED7
:10396000E00AF1EE10FAE5D30DE0674901EB8001C2
:1039700091ED000ADFED650A30EE600A624901EB65
:10398000800181ED000A604901EB800191ED000AA0
:10399000DFED600AB4EEE00AF1EE10FAE5DC5A4918
:1039A00001EB800191ED000ADFED5B0AB4EEE00A65
:1039B000F1EE10FA21DD534901EB800191ED000A8F
:1039C000514901EB8001D1ED000A30EE200ADFED14
:1039D000510A30EE600A514901EB800181ED000A85
:1039E0004F4901EB800191ED000AB1EE400A4C49CC
:1039F00001EB800181ED000A56E0434901EB8001B3
:103A000091ED000ADFED470AB4EEE00AF1EE10FA9C
:103A100021D23C4901EB800191ED000A3A4901EBCA
:103A20008001D1ED000A30EE200ADFED3A0A30EED7
:103A3000200A3A4901EB800181ED000A384901EB87
:103A4000800191ED000AB1EE400A354901EB800199
:103A500081ED000A28E02C4901EB800191ED000A7C
:103A6000DFED300AB4EEE00AF1EE10FA1CDB264975
:103A700001EB800191ED000ADFED270AB4EEE00AC8
:103A8000F1EE10FA10D81F4901EB800191ED000A08
:103A90001D4901EB8001D1ED000A30EE200A1F49DB
:103AA00001EB800181ED000A1C4901EB800191EDE1
:103AB000000A144901EB800181ED000A174901EB6E
:103AC000800191ED000AB1EE400A144901EB80013A
:103AD00081ED000A124901EB800191ED000A1249C3
:103AE000D1ED000A20EE200A04F1600101EB800113
:103AF00081ED000A401C0428FFF60AAF10BD00004B
:103B0000186200242862002438620024DA0FC940B9
:103B1000DA0F49C0DA0F4940DA0FC93F5862002472
:103B200048620024DA0FC9BF640100241FB50021D8
:103B300053480BF0E9FD5248816888470220042170
:103B4000504B1022CDE9001001214F4800F0A6FE95
:103B5000022004214B4B1022CDE9001001464B48B6
:103B600000F09CFE02200421464B1022CDE90010FB
:103B70000321474800F092FE02200421414B10220D
:103B8000CDE90010434800F089FE4348012100229E
:103B9000CDE90012414B40F20122CDE90210490269
:103BA0003F4800F023F93F4801210022CDE90012EF
:103BB0003A4B40F20222CDE9021049023A4800F0A5
:103BC00015F93A4801210022CDE90012334B40F2A9
:103BD0000322CDE902104902354800F007F93548C3
:103BE00001210022CDE900122C4B4FF40172CDE9E6
:103BF00002104902304800F0F9F821482249426C8D
:103C000090471F482149426C90471D482049426C0B
:103C100090471B481F49426C904719482049426C05
:103C2000904717482049426C904715482049426CFC
:103C3000904713482049426C904713480021D0F820
:103C4000F82090470A2003F09FFA10480021D0F88E
:103C5000F82090470A2003F097FA0D480021D0F889
:103C6000F82090470A2003F08FFA0A480021D0F884
:103C7000F8209047114802490867114888671FBD1E
:103C80000C5700248C0400248857002490580024EA
:103C900098590024A05A0024740100242C05002403
:103CA000A85B00248C010024445D0024A4010024AE
:103CB000E05E0024BC0100247C600024D9340008AC
:103CC000355D01082DE9F04104460025002600205D
:103CD000186000BF23E004F11A073F5C012F08D1F0
:103CE000471CAC4605F1010808F0FF0541F82C70AF
:103CF00014E004F11A073F5C022F08D1471CB446B8
:103D000006F1010808F0FF0642F82C7006E004F105
:103D10001A073F5C032F01D1471C1F60401C0C2871
:103D2000D9DBBDE8F08110B500BF012014F050FBD5
:103D3000FBE74A780B7842EA0322A0F86C21B0F83E
:103D40006C21A0F870217047027F5AB1012A05D07A
:103D5000022A02D0052A46D100BF00BF8A7980F826
:103D60006A2100BF00F5B270028942814A780B785F
:103D700042EA03220281CA788B7842EA032212B215
:103D800002804A790B7942EA032212B26FF00403EF
:103D900092FBF3F212B2428002894389A0F5B2701D
:103DA000D21AB2F5805F05DDD0F87421521EC0F83A
:103DB00074210CE0B0F86C21B0F86E31D21A12F513
:103DC000805F04DAD0F87421521CC0F87421B0F876
:103DD0006C31D0F8742103EB4232B0F87031D21A52
:103DE000C0F8782100E000BF00BF70472DE9F84F10
:103DF00004468B4615461E460AAF97E88007E9B28F
:103E00003B4632462046CDF800800AF0FFFC04F520
:103E1000B07424F8A05C1B4860631B48A0631B4877
:103E200020630020A080E0802081A072A081E0813A
:103E300020826061A06120772085E062A4F5B074E3
:103E4000002104F5BF70C4F87E11C4F88211A4F8F3
:103E50008611607F58B1012802D002280FD10DE0F1
:103E60005246494604F58A700AF0CAFE07E05246F7
:103E7000494604F1C4000AF0C3FE00E000BF00BFE1
:103E8000BDE8F88F493D0008333D000895E800087B
:103E90002DE9F0438BB081460E4614461D46DDE900
:103EA00012780296002003900490082005900020CC
:103EB00006900790089009900A90200A8DF800005B
:103EC000E0B28DF80100280A8DF80200E8B28DF802
:103ED0000300380A8DF80400F8B28DF805004FEAA7
:103EE00018208DF8060008F0FF008DF807006A46DC
:103EF00002A9484603F0B0F90BB0BDE8F08300001A
:103F000010B5024801F04AFF10BD0000500C00241B
:103F100010B5024801F042FF10BD0000600B002404
:103F200010B5024801F03AFF10BD0000C80C002493
:103F30000146374A0868904249D0354A1832086825
:103F4000904244D0324A3032086890423FD0304AE2
:103F50004832086890423AD02D4A60320868904250
:103F600035D02B4A78320868904230D0284A9032B7
:103F7000086890422BD0264AA8320868904226D082
:103F8000244A0868904222D0224A18320868904297
:103F90001DD0204A30320868904218D01D4A48325D
:103FA0000868904213D01B4A6032086890420ED0D5
:103FB000184A78320868904209D0164A9032086848
:103FC000904204D0134AA8320868904201D10120DF
:103FD00000E00020B0B10A78103A1823B2FBF3F0E9
:103FE00000F007020C4B9A5CCA65032805D90A68E1
:103FF0006FF30902121D8A6503E00A686FF3090274
:104000008A6503E0086820F0FF008865886D7047C6
:10401000100002401004024094B9010810B5026873
:104020002B4C0368A34222D0294C14340368A342CA
:104030001DD0274C28340368A34218D0244C3C34AC
:104040000368A34213D0224C50340368A3420ED01D
:104050001F4C64340368A34209D01D4C78340368B4
:10406000A34204D01A4C8C340368A34201D101232B
:1040700000E000238BB10378083B1424B3FBF4F178
:10408000144B03EB81030366124B8033436601F04C
:104090001F040123A340836618E00378103B182413
:1040A000B3FBF4F10C4B9A4204D80B4BA83B9A4259
:1040B00000D30831094B03EB81030366074B8033C0
:1040C000436601F01F040123A340836610BD000076
:1040D0000854025800580258B80402400008024030
:1040E0000179A9B3082940D8204B02689A4222D00E
:1040F0001E4B143302689A421DD01C4B28330268B1
:104100009A4218D0194B3C3302689A4213D0174B8D
:10411000503302689A420ED0144B643302689A42BC
:1041200009D0124B783302689A4204D00F4B8C337B
:1041300002689A4201D1012200E000224AB14A1EDF
:104140000B4B03EB8202C266094A4032026708E069
:104150000BE04A1E074B03EB8202C266054A40325F
:1041600002674A1E01239340436770470854025870
:104170000059025800090240014600208A69D2B95C
:104180008A6A32B1012A0DD0022A03D0032A10D143
:104190000EE000BFCA6A02F08072B2F1807F00D1E7
:1041A000012007E0CA6AB2F1C07F00D1012001E01E
:1041B00000E000BF36E08A69B2F5005F1BD18A6A71
:1041C00032B1012A07D0022A03D0032A11D10AE012
:1041D00000BF01200EE0CA6A02F08072B2F1807F57
:1041E00000D1012006E0CA6AB2F1C07F00D10120EF
:1041F00000E000BF16E08A6A32B1012A05D0022A27
:1042000004D0032A0CD103E000BF00BF012008E066
:10421000CA6A02F08072B2F1807F00D1012000E012
:1042200000BF00BF7047000030B5384D0468AC4295
:1042300049D0364D18350468AC4244D0334D303542
:104240000468AC423FD0314D48350468AC423AD0A6
:104250002E4D60350468AC4235D02C4D783504685D
:10426000AC4230D0294D90350468AC422BD0274D5C
:10427000A8350468AC4226D0254D0468AC4222D053
:10428000234D18350468AC421DD0214D30350468EB
:10429000AC4218D01E4D48350468AC4213D01C4DBA
:1042A00060350468AC420ED0194D78350468AC42D4
:1042B00009D0174D90350468AC4204D0144DA83590
:1042C0000468AC4201D1012400E0002474B1046808
:1042D00063608468402C04D10468A2600468E160D3
:1042E00012E00468A1600468E2600DE004686360A5
:1042F0008468402C04D10468A2600468E16003E093
:104300000468A1600468E26030BD00001000024053
:1043100010040240F0B5856D846D984F0668BE426A
:1043200070D0964F18370668BE426BD0934F303727
:104330000668BE4266D0914F48370668BE4261D0DB
:104340008E4F60370668BE425CD08C4F7837066867
:10435000BE4257D0894F90370668BE4252D0874F31
:10436000A8370668BE424DD0854F0668BE4249D088
:10437000834F18370668BE4244D0814F30370668F5
:10438000BE423FD07E4F48370668BE423AD07C4F8F
:1043900060370668BE4235D0794F78370668BE422E
:1043A00030D0774F90370668BE422BD0744FA83775
:1043B0000668BE4226D0734F0668BE4222D0714FB7
:1043C00014370668BE421DD06E4F28370668BE42BD
:1043D00018D06C4F3C370668BE4213D0694F503737
:1043E0000668BE420ED0674F64370668BE4209D0E9
:1043F000644F78370668BE4204D0624F8C37066837
:10440000BE4201D1012600E000263EB1D0E9197676
:104410007E60C66E16B1D0E91C767E60574F066886
:10442000BE4249D0554F18370668BE4244D0534F5C
:1044300030370668BE423FD0504F48370668BE420C
:104440003AD04E4F60370668BE4235D04B4F783772
:104450000668BE4230D0494F90370668BE422BD026
:10446000464FA8370668BE4226D0454F0668BE4272
:1044700022D0434F18370668BE421DD0404F303718
:104480000668BE4218D03E4F48370668BE4213D079
:104490003B4F60370668BE420ED0394F783706680A
:1044A000BE4209D0364F90370668BE4204D0344F22
:1044B000A8370668BE4201D1012600E00026DEB121
:1044C00090F85C6006F01F073F26BE40AE600668AD
:1044D000366826F4802607683E6006687360866842
:1044E000402E04D10668B2600668F16044E00668B8
:1044F000B1600668F2603FE0224F0668BE4222D0FB
:10450000204F14370668BE421DD01E4F283706685C
:10451000BE4218D01B4F3C370668BE4213D0194F1D
:1045200050370668BE420ED0164F64370668BE424A
:1045300009D0144F78370668BE4204D0114F8C372B
:104540000668BE4201D1012600E00026A6B190F81F
:104550005C6006F01F070126BE4066600668736057
:104560008668402E04D10668B2600668F16003E0F8
:104570000668B1600668F260F0BD000010000240FD
:10458000100402400854025830B58BB004460D4662
:10459000A07F029000200390049008200590002046
:1045A00006900790089009900A90FF208DF800006F
:1045B0008DF801008DF802008DF803008DF80400DD
:1045C0008DF805008DF8060035B1012D0BD0022DB8
:1045D00010D0032D16D111E0FC208DF8070001202A
:1045E00084F8C4000FE0FD208DF80700002084F857
:1045F000C40008E0FE208DF8070004E0FB208DF8E1
:10460000070000E000BF00BF6A4602A904F12000D5
:1046100002F022FE0BB030BD2DE9F0412DED048BF0
:1046200004460D46A878697840EA0126E87800013A
:10463000297940EA21176879297901F00F0140EAC8
:104640000128B2EE090AF0EE408AB3EE0E0AB0EE8F
:10465000408AB2EE040AB0EE409A207F001F08287C
:1046600053D2DFE800F0115252041E2B3845B2EE4F
:10467000090AF0EE408AB3EE0E0AB0EE408AB2EEBE
:10468000040AB0EE409A41E09FED770AF0EE408ACE
:104690009FED760AB0EE408AB2EE040AB0EE409A80
:1046A00034E09FED720AF0EE408AB3EE0E0AB0EEEF
:1046B000408AB2EE040AB0EE409A27E09FED6C0A01
:1046C000F0EE408AB3EE0E0AB0EE408AB2EE040A73
:1046D000B0EE409A1AE0B2EE090AF0EE408AB3EE6C
:1046E0000E0AB0EE408AB2EE0E0AB0EE409A0DE02D
:1046F0009FED600AF0EE408A9FED5F0AB0EE408ABF
:10470000B2EE0E0AB0EE409A00E000BF00BF28787B
:10471000001184F8C40094ED320A84ED330A1021AC
:10472000F0EE680AB1EE680A304615F09FFD84EDA0
:10473000320A0C21F0EE480AB1EE480A384615F06C
:1047400095FD84ED350A94ED350AF0EEC00A9FED33
:104750004B0A28EE000AF4EEC00AF1EE10FA03DB71
:104760009FED470A84ED350A0C21F0EE490AB1EEBF
:10477000490A404615F07AFD84ED360AA87900EE24
:10478000100AB8EE400ABCEEC00A10EE100A84F817
:10479000DC00E87900EE100AB8EE400ABCEEC00A70
:1047A00010EE100A84F8DD0094ED320AD4ED330ADD
:1047B00030EE600ADFED330AB4EEE00AF1EE10FAF3
:1047C00005DDD4F8E000001FC4F8E00011E094ED2E
:1047D000320AD4ED330A30EE600ADFED2B0AB4EE74
:1047E000E00AF1EE10FA04D2D4F8E000001DC4F89B
:1047F000E00094ED321AB7EEC11AB0EE410B9FED16
:10480000231B0FF071FCB7EEC00B84ED340A94ED5E
:10481000340ADFED200AB4EEE00AF1EE10FA08DD0A
:1048200094ED340ADFED170A30EE600A84ED340AA5
:1048300010E094ED340ADFED180AB4EEE00AF1EE70
:1048400010FA07D294ED340ADFED0E0A30EE200A9A
:1048500084ED340A94F8C40010B9012084F8C4002F
:10486000BDEC048BBDE8F081CDCC16420000344293
:1048700000008C423333FB4100000C42E3A57B3F38
:1048800000000000D00FC940D00FC9C000000000D8
:10489000FA211940D00F4940D00F49C02DE9F84303
:1048A00004460D4616461F46DDE90889E9B243462F
:1048B0003A462046CDF8009009F0A8FFC43466704F
:1048C0000F4860630F48E0630F4820640F48A063FF
:1048D0009FED0F0A84ED010A9FED0D0A84ED020A97
:1048E0009FED0B0A84ED030A9FED090A84ED040A8B
:1048F0009FED070A84ED050AC43CBDE8F88300007B
:104900008945000815490008154C0008194600089B
:10491000000000002DE9F0432DED068B8BB005461D
:10492000B0EE40AAB0EE608AF0EE418AB0EE619A35
:10493000F0EE429AA87F0290002003900490082095
:104940000590002006900790089009900A90287F13
:10495000001F082866D2DFE800F00565041525353C
:10496000455500BF9FEDA10AA14880ED000A9FEDCB
:10497000A10AA14880ED000AB2EE040A9F4880ED2A
:10498000000A50E0B2EE090A994880ED000AB3EE41
:104990000E0A994880ED000AB2EE040A974880EDAD
:1049A000000A40E09FED930A914880ED000AB3EEC3
:1049B0000E0A914880ED000AB2EE040A8F4880ED9D
:1049C000000A30E09FED8E0A894880ED000AB3EEC0
:1049D0000E0A894880ED000AB2EE040A874880ED8D
:1049E000000A20E0B2EE090A814880ED000AB3EE29
:1049F0000E0A814880ED000AB2EE0E0A7F4880ED73
:104A0000000A10E09FED7F0A794880ED000A9FEDD3
:104A10007E0A794880ED000AB2EE0E0A774880EDF2
:104A2000000A00E000BF00BF687FE8B3012802D0A1
:104A3000022838D16FE010206D4991ED001A91EDF8
:104A4000000AF1EE400AB0EE4A0A11F071FC064687
:104A50000C20694991ED001A91ED000AF1EE400A2F
:104A6000B0EE480A11F064FC07460C209FED671A6F
:104A7000DFED660AB0EE690A11F05AFC80460C20A0
:104A80009FED631ADFED610AB0EE680A11F050FC89
:104A900081460C20B1EE041ADFED5C0AB0EE490A43
:104AA00011F046FC044672E0FFE710209FED571A14
:104AB000DFED560A9FED550A11F03AFC06460C2030
:104AC0004D4991ED001A91ED000AF1EE400AB0EE69
:104AD000480A11F02DFC07460C209FED4C1ADFED23
:104AE0004B0A9FED4A0A11F023FC80460C209FEDF3
:104AF000471ADFED460A9FED450A11F019FC814681
:104B00000C20B1EE041ADFED410AB0EE490A11F0B3
:104B10000FFC04463BE01020354991ED001A91ED61
:104B2000000AF1EE400AB0EE4A0A11F001FC064616
:104B30000C20314991ED001A91ED000AF1EE400A86
:104B4000B0EE480A11F0F4FB07460C202B4991ED1A
:104B5000001A91ED000AF1EE400AB0EE690A11F078
:104B6000E7FB80460C209FED2A1ADFED280AB0EE05
:104B7000680A11F0DDFB81460C20B1EE041ADFED6E
:104B8000230AB0EE490A11F0D3FB044600BF00BF70
:104B900030128DF80000F0B28DF80100C7F3071055
:104BA0008DF802003807000E40EA29208DF8030036
:104BB00009F0FF008DF80400C4F307108DF805001C
:104BC0002007000E40EA28208DF8060008F0FF00BC
:104BD0008DF807006A4602A905F1200002F03CFBAF
:104BE0000BB0BDEC068BBDE8F0830000CDCC1642C7
:104BF0005401002400003442580100245C010024C8
:104C000000008C423333FB4100000C4200000000E6
:104C10000000FA4371B52DED020B8BB006460BACCC
:104C20000CADB07F02900020039004900820059006
:104C3000002006900790089009900A9020788DF83F
:104C4000000060788DF80100A0788DF80200E0780F
:104C50008DF8030028788DF8040068788DF8050039
:104C6000A8788DF80600E8788DF807006A4602A952
:104C700006F1200002F0F0FA0EB070BD704772B677
:104C800000BFFEE70748006840F0020005490860E1
:104C900000BF04480838006800F400500028F8D02D
:104CA000704700000C48025810B5024802F0C0FCE2
:104CB00010BD00008C04002410B5024802F0B8FCBE
:104CC00010BD00002C05002410B5024802F0B0FC15
:104CD00010BD0000CC05002410B501464A6B0868E1
:104CE000D0F884004FF6FC74A04340EA82000C68C0
:104CF000C4F884000868D0F8840020F47F04088F8A
:104D000044EA00400C68C4F88400886B02440868D8
:104D1000D0F888004FF6FC74A04340EA82000C688B
:104D2000C4F888000868D0F8880020F4FE04888F52
:104D300044EA00400C68C4F88800C86B02EB4002EB
:104D40000868D0F8A0004FF6FC74A04340EA820047
:104D50000C68C4F8A0000868D0F8A00020F4FE0495
:104D60004020405A44EA00400C68C4F8A000D1E951
:104D7000104004FB00220868D0F8B0004FF6FC7425
:104D8000A04340EA82000C68C4F8B0000868D0F87C
:104D9000B00020F4FE04B1F8480044EA00400C687A
:104DA000C4F8B000D1E9124004FB00220868D0F832
:104DB000AC004FF6FC74A04340EA82000C68C4F8D3
:104DC000AC00D1E9144004FB00220868D0F8F000E0
:104DD0004FF6FC74A04340EA82000C68C4F8F0006F
:104DE0000868D0F8F00020F47C14B1F8580044EAC8
:104DF00000400C68C4F8F000886D02EB40020868BF
:104E0000D0F8C0004FF6FC74A04340EA82000C6862
:104E1000C4F8C0000868D0F8C00020F47C14B1F8D1
:104E20005C0044EA00400C68C4F8C0000868D0F890
:104E3000C00020F07C5491F8600044EA00600C68E7
:104E4000C4F8C0002A4C486B04EB8000C866CC6EE6
:104E5000886B04EB80040C670C6FC86B04EBC00418
:104E60004C67D1E9100460434C6F04EB80048C67FD
:104E7000D1E9120460438C6F04EB8004CC67D1E964
:104E800014046043CC6F04EB8004802044504458E9
:104E9000886D04EBC004842044508C6EC86D604360
:104EA0008424645804EB8004882044508C6E086E7F
:104EB00060438824645804EB800490204450405898
:104EC0000C4CA04209D99831486840F02000486055
:104ED000032001F89809012010BDCB6E02E00020EC
:104EE00018601B1D902040589842F8D80020F3E726
:104EF00000AC0040FCD300402DE9F04105461446CB
:104F00001E46D1F804C0BCF1000F0AD1D1F810C080
:104F1000D1F808804CEA080CB1F800804CEA8843CC
:104F20000BE0D1F810C04CF0804CD1F808804CEA6E
:104F3000080CD1F800804CEA080391F82080D1F8E1
:104F40001CC04CEA086CD1F818804CEA080CD1F867
:104F500014804CEA080CB1F80C804CEA0847D5F8EC
:104F600068C00CFB06FCD5F8848008EB8C0213604B
:104F7000121D1760121D002019E000F1030C14F837
:104F80000CC04FEA0C6800F1020C14F80CC048EA9F
:104F90000C4800F1010C14F80CC048EA0C2C14F871
:104FA00000804CEA080CC2F800C0121D001DDFF89A
:104FB0001480D1F80CC018F80CC08445DDD8BDE8C9
:104FC000F08100009CB9010800BF7348407A0128B5
:104FD00009D17148C07A30B96F48807918B9012079
:104FE00015F0DAFAB3E06D494978012943D16B49EC
:104FF000087800EBD0714910A0EB4101D1BB4FF410
:10500000AF60674909684863BFEE080A654880EDEC
:10501000000A9FED650A80ED010A9FED640A80EDAC
:10502000020A9FED630A80ED030A9FED5F0A80ED9F
:10503000040A4FF4167015F0AFFA5E489FED5A2A35
:10504000DFED5B1A9FED591ADFED570ABFEE080A34
:10505000D0F800118847642015F09EFA4FF41670BE
:105060004F490968C863400015F096FA00204B4983
:1050700048706CE0FFE749494978012967D1474901
:10508000087800EBD0714910A0EB410101295ED1F5
:10509000BFEE080A434880ED000A9FED430A80ED09
:1050A000010A9FED420A80ED020A9FED410A80ED60
:1050B000030A9FED3D0A80ED040A3E489FED3A2A1F
:1050C000DFED3B1A9FED391ADFED370ABFEE080A14
:1050D000D0F8001188474FF4FA7015F05DFA40F6E9
:1050E000C4102F490968C8634FF4C86015F054FA1A
:1050F0009FED2D0A2B4880ED000A9FED2F0A80EDD1
:10510000010A9FED290A80ED020A9FED2C0A80ED2D
:10511000030A9FED250A80ED040A26489FED222A06
:10512000DFED261A9FED201ADFED230A9FED1E0A00
:10513000D0F8001188474FF47A7015F02DFA4FF42B
:10514000C8601749096848630020144948701C4822
:10515000007801281BD11B4890ED000AB8EEC00A68
:10516000194808F035FB1948006802280FDB4FF496
:105170007A6015F011FA164890ED000AB8EEC00AF0
:10518000114808F025FB4FF47A6015F005FA052068
:1051900013F01EF919E7000098020024F80100241A
:1051A000B8060024806C0024000000009A99993F02
:1051B000CDCC4C3E286B0024CDCC4C3F9A99993EE7
:1051C0000202002458030024806D002460030024A0
:1051D0005C03002470B50A480468001D0568001DC2
:1051E0000668344454B108220649204608F0D1FA32
:1051F000042204491031284608F0CBFA70BD0000A3
:1052000000E8F11FE20300242DE9F04704460F46B1
:1052100090461E46DDF820904FF0000AA0688028D6
:1052200004D1400060654FF0010A75E100BF94F8B9
:105230003400012802D10220BDE8F087012084F863
:10524000340000BF94F8350001287DD1022084F895
:10525000350000206065B1492068884249D0AF49D7
:1052600018312068884244D0AC49303120688842E7
:105270003FD0AA494831206888423AD0A7496031D6
:105280002068884235D0A54978312068884230D0DE
:10529000A2499031206888422BD0A049A8312068CB
:1052A000884226D09E492068884222D09C491831E5
:1052B000206888421DD09A4930312068884218D031
:1052C000974948312068884213D095496031206859
:1052D00088420ED0924978312068884209D090499E
:1052E00090312068884204D08D49A83120688842D6
:1052F00001D1012000E0002090B12068006840F456
:1053000080202168086020680661A06D00F1080512
:1053100094F85C0000F01F013F208840286011E0F5
:105320002068006848F2200108432168086020686E
:105330000661A06D051D94F85C0000F01F010120BE
:1053400088402860754900E0E1E02068884270D01C
:1053500072491831206888426BD07049303120681A
:10536000884266D06D4948312068884261D06B49D7
:105370006031206888425CD0684978312068884272
:1053800057D0664990312068884252D06349A8318D
:10539000206888424DD062492068884249D06049DF
:1053A00018312068884244D05D49303120688842F5
:1053B0003FD05B494831206888423AD05849603133
:1053C0002068884235D0564978312068884230D0EC
:1053D00053499031206888422BD05149A831206828
:1053E000884226D04F492068884222D04D49143146
:1053F000206888421DD04B4928312068884218D047
:1054000048493C312068884213D0464950312068D1
:1054100088420ED0434964312068884209D041490E
:1054200078312068884204D03E498C312068884217
:1054300001D1012000E0002068B14B4642463946C8
:105440002046FEF7F1FED4E919104860E06E10B175
:10545000D4E91C10486031492068884249D02F495E
:1054600018312068884244D02C4930312068884265
:105470003FD02A494831206888423AD027496031D4
:105480002068884235D0254978312068884230D05C
:1054900022499031206888422BD02049A8312068C9
:1054A000884226D01E492068884222D01C491831E3
:1054B000206888421DD01A4930312068884218D0AF
:1054C000174948312068884213D015496031206857
:1054D00088420ED0124978312068884209D010499C
:1054E00090312068884204D00D49A8312068884254
:1054F00006D12068006840F00100216808600BE0D8
:105500002068006840F001002168086004E04FF462
:10551000006060654FF0010A50468DE610000240C1
:1055200010040240085402582DE9F041044602F0EC
:10553000CBFE804614B90120BDE8F08194F8350017
:10554000022808D08020606500BF002084F8340065
:1055500000BF0120F0E7FE492068884249D0FC499D
:1055600018312068884244D0F94930312068884297
:105570003FD0F7494831206888423AD0F449603139
:105580002068884235D0F24978312068884230D08E
:10559000EF499031206888422BD0ED49A83120682E
:1055A000884226D0EB492068884222D0E949183148
:1055B000206888421DD0E74930312068884218D0E1
:1055C000E44948312068884213D0E24960312068BC
:1055D00088420ED0DF4978312068884209D0DD4901
:1055E00090312068884204D0DA49A8312068884286
:1055F00006D12068006820F001002168086005E0FD
:105600002068006820F0010021680860D049206807
:10561000884249D0CE4918312068884244D0CC49CC
:105620003031206888423FD0C949483120688842DB
:105630003AD0C74960312068884235D0C4497831B2
:105640002068884230D0C2499031206888422BD0EF
:10565000BF49A8312068884226D0BE4920688842C8
:1056600022D0BC491831206888421DD0B949303158
:105670002068884218D0B74948312068884213D042
:10568000B4496031206888420ED0B2497831206830
:10569000884209D0AF4990312068884204D0AD4992
:1056A000A8312068884201D1012000E0002068B1C3
:1056B0002068006820F01E002168086020684069AA
:1056C00020F0800021684861256806E020680068B5
:1056D00020F00E002168086025689D4920688842F6
:1056E00070D09B491831206888426BD0984930317E
:1056F0002068884266D0964948312068884261D047
:1057000093496031206888425CD0914978312068A3
:10571000884257D08E4990312068884252D08C49B7
:10572000A831206888424DD08A492068884249D0F3
:10573000884918312068884244D086493031206831
:1057400088423FD083494831206888423AD0814915
:1057500060312068884235D07E497831206888429F
:1057600030D07C499031206888422BD07949A831CB
:105770002068884226D078492068884222D076491D
:105780001431206888421DD073492831206888422E
:1057900018D071493C312068884213D06E4950318D
:1057A000206888420ED06C4964312068884209D054
:1057B000694978312068884204D067498C31206873
:1057C000884201D1012000E0002028B1206E00684D
:1057D00020F48070216E086011E002F075FDA0EBEE
:1057E000080005280BD920206065032084F83500C7
:1057F00000BF002084F8340000BF01209CE6286828
:1058000000F001000028E8D151492068884249D0C1
:105810004F4918312068884244D04D4930312068C2
:1058200088423FD04A494831206888423AD04849A6
:1058300060312068884235D04549783120688842F7
:1058400030D043499031206888422BD04049A8315C
:105850002068884226D03F492068884222D03D49AE
:105860001831206888421DD03A493031206888427A
:1058700018D0384948312068884213D03549603102
:10588000206888420ED0334978312068884209D098
:10589000304990312068884204D02E49A8312068D0
:1058A000884201D1012000E0002040B1A66D94F8AB
:1058B0005C0000F01F013F208840B06007E0A76D4A
:1058C00094F85C0000F01F010120884078602049B6
:1058D0002068884276D01E4918312068884271D0ED
:1058E0001B493031206888426CD019494831206802
:1058F000884267D0164960312068884262D01449D6
:105900007831206888425DD0114990312068884202
:1059100058D00F49A8312068884253D00D492068DB
:1059200088424FD00B491831206888424AD0094933
:1059300030312068884245D0064948312068884285
:1059400040D004496031206888423BD0014905E0DD
:1059500010000240100402400854025878312068B8
:1059600088422FD02549206888422BD023491831FE
:105970002068884226D022492068884222D02049C7
:105980001431206888421DD01D4928312068884282
:1059900018D01B493C312068884213D01849503137
:1059A000206888420ED0164964312068884209D0A8
:1059B000134978312068884204D011498C3120681D
:1059C000884201D1012000E0002068B1D4E919101B
:1059D0004860E06E40B1E06E006820F48070E16ED7
:1059E0000860D4E91C104860012084F8350000BF2D
:1059F000002084F8340000BF00BF9DE5A0040240F1
:105A00000854025870B504460CB9012070BD94F8D2
:105A10003500022803D0802060650120F6E7DC49CC
:105A20002068884249D0DA4918312068884244D039
:105A3000D7493031206888423FD0D5494831206865
:105A400088423AD0D24960312068884235D0D04966
:105A500078312068884230D0CD4990312068884222
:105A60002BD0CB49A8312068884226D0C94920686C
:105A7000884222D0C7491831206888421DD0C549C4
:105A800030312068884218D0C249483120688842A5
:105A900013D0C0496031206888420ED0BD497831AA
:105AA0002068884209D0BB4990312068884204D0E0
:105AB000B849A8312068884201D1012000E00020C7
:105AC000F0B3042084F83500B149206888424BD0F7
:105AD000AF4918312068884246D0AD49303120683E
